:020000040800F2
:1000000070BB0020C501000819150008670D000825
:1000100015150008710300081D35000800000000D8
:100020000000000000000000000000006D32000829
:100030009508000800000000A91500089133000889
:10004000DF010008DF010008DF010008DF01000810
:10005000DF010008DF010008DF010008DF01000800
:10006000DF010008DF010008DF010008DF010008F0
:10007000DF010008DF010008DF010008DF010008E0
:10008000DF010008DF010008DF010008DF010008D0
:10009000DF010008DF010008DF010008DF010008C0
:1000A000DF010008DF010008DF010008DF010008B0
:1000B000DF010008DF010008DF010008DF010008A0
:1000C000DF010008DF010008DF010008DF01000890
:1000D000DF010008DF010008DF010008DF01000880
:1000E000DF010008DF010008DF010008DF01000870
:1000F000DF010008DF010008DF010008DF01000860
:10010000DF0100088D190008DF010008DF01000889
:10011000DF010008DF010008DF010008DF0100083F
:10012000DF010008DF010008DF01000841060008C8
:10013000DF010008DF010008DF010008DF0100081F
:10014000DF010008DF010008DF010008DF0100080F
:10015000DF010008DF010008DF010008DF010008FF
:10016000DF010008DF010008DF010008DF010008EF
:10017000DF010008DF010008DF010008DF010008DF
:10018000DF010008DF010008DF010008DF010008CF
:10019000DF010008DF010008DF010008DF010008BF
:1001A000DF010008DF010008DF010008DFF810D0E0
:1001B00000F080F800480047E54E0008AFF30080EB
:1001C00070BB00200648804706480047FEE7FEE770
:1001D000FEE7FEE7FEE7FEE7FEE7FEE7FEE7FEE7F7
:1001E00099330008AD0100082DE9F05F05460020B5
:1001F00092469B4688460646814640241BE0284698
:1002000041464746224600F045F853465A46C01A32
:10021000914110D311461846224600F02CF82D1AB1
:1002200067EB01084F4622460120002100F023F829
:1002300017EB00094E41201EA4F10104DFDC484603
:1002400031462A464346BDE8F09F30B50B4601468D
:1002500000202022012409E021FA02F59D4205D365
:1002600003FA02F5491B04FA02F52844151EA2F10F
:100270000102F1DC30BD202A04DB203A00FA02F151
:10028000002070479140C2F1200320FA03F3194384
:1002900090407047202A04DB203A21FA02F0002126
:1002A000704721FA02F3D040C2F120029140084386
:1002B00019467047064C074D06E0E06840F0010320
:1002C00094E8070098471034AC42F6D3FFF772FF6A
:1002D000C4050308E40503081CB50121402001F012
:1002E00065F94FF40070009001208DF804000020A3
:1002F0008DF8060002208DF8070000208DF805001B
:100300006946044800F0C0FC4FF40071014800F059
:1003100026FD1CBD00180240F0B5024613481546E4
:1003200000241FE0002317E0002110E02E78C1F127
:1003300007073E4106F001061EB14FF07F460660FA
:1003400002E04FF0FF360660001D4E1CB1B20829D6
:10035000ECDB6D1C5E1CB3B2502BE5DB00F52070AE
:10036000661CB4B2B4F5F07FDCDBF0BD40B90BD055
:1003700000BFFEE770B500254FF4803400E0641E36
:1003800024B1802001F0D6FA0028F8D014B9032552
:10039000284670BD40F2FF5001F088FA2846F8E781
:1003A0002DE9F041064600274848056801E0474826
:1003B000056805F045000028F9D005F0040030B1CB
:1003C0000327042001F072FA3846BDE8F08105F0F9
:1003D000010028B10127012001F068FA3846F4E74E
:1003E00001F0A2FAB04202D010273846EDE740F201
:1003F000FF5001F05BFA002001F0BCFA04463448DB
:10040000204008B93846E0E704F0004008B11C205D
:10041000DBE704F0804008B10920D6E704F0005083
:1004200008B10A20D1E704F0805008B10B20CCE7D6
:1004300004F0006008B10C20C7E704F0806008B148
:100440000D20C2E704F0807008B10E20BDE704F46F
:10045000000008B10F20B8E704F4800008B11020B4
:10046000B3E704F4001008B11120AEE704F48010E3
:1004700008B11220A9E704F4002008B11320A4E772
:1004800004F4802008B114209FE704F4003008B180
:1004900015209AE704F4803008B1162095E704F49B
:1004A000004008B1172090E704F4804008B11820FC
:1004B0008BE704F4005008B1192086E704F0080027
:1004C00008B11A2081E738467FE70000342C01404C
:1004D00008E0FFFD70B500251048046801E00F48F2
:1004E000046804F045000028F9D004F0040028B1A5
:1004F0000325042001F0DAF9284670BD04F001005C
:1005000028B10125012001F0D1F92846F5E740F294
:10051000FF5001F0CBF92846EFE70000342C0140F2
:1005200070B500250B48046801E00A48046804F02F
:1005300045000028F9D004F0040028B10325042068
:1005400001F0B4F9284670BD40F2FF5001F0AEF959
:100550002846F8E7342C01402DE9F04106460F46C5
:100560004FF000082248056801E02148056805F0C1
:1005700045000028F9D005F0040038B14FF0030819
:10058000042001F093F94046BDE8F08105F0010038
:1005900030B14FF00108012001F088F94046F3E73F
:1005A00001F0C2F9B04203D04FF010084046EBE72B
:1005B00040F2FF5001F07AF9002001F0DBF9044627
:1005C00004F4604018B9200C38804046DCE704F49D
:1005D000005008B11320D7E704F4804008B1102080
:1005E000D2E704F4004008B10F20CDE74046CBE746
:1005F000342C014070B500264FF480350F48046854
:1006000002E06D1E0D48046804F0450008B9002D95
:10061000F7D115B104F0040028B10326042001F03D
:1006200045F9304670BD04F0400028B10026402056
:1006300001F03CF93046F5E73046F3E7342C014051
:1006400010B502F00DF910BD0246094B9A4201D2D5
:10065000084801E00648103801F000531BB1064B72
:100660000B40C36002E0044B0B4083607047000006
:1006700010640240006002407D0F7D0F21B10268CE
:1006800042F00102026003E0026822F0010202600F
:1006900070470000016821F0010101600021016044
:1006A00041608160C1600161212141614A49884204
:1006B00004D13D21484A103A91608CE046491831F6
:1006C000884205D14FF47461434A103A916082E048
:1006D00041493031884205D14FF474113E4A103AF5
:1006E000916078E03C494831884205D14FF074610F
:1006F000394A103A91606EE037496031884204D13E
:100700003649354A103AD16065E03349783188423C
:1007100004D13349304A103AD1605CE02E4990311F
:10072000884204D12F492C4A103AD16053E02A491B
:10073000A831884205D14FF03D51274A103AD16087
:1007400049E02949884204D13D21274A083A1160ED
:1007500041E025491831884205D14FF47461224A9D
:10076000083A116037E020493031884205D14FF412
:1007700074111D4A083A11602DE01B494831884226
:1007800005D14FF07461184A083A116023E0164908
:100790006031884204D11149134A121F11601AE0D6
:1007A00011497831884204D10D490F4A121F116056
:1007B00011E00D499031884204D10A490A4A121FBA
:1007C000116008E00849A831884204D14FF03D513A
:1007D000054A121F11607047106002403D00002062
:1007E000400F002000003D201064024021B102684B
:1007F00042F02002026003E0026822F02002026060
:10080000704710B501F080034BB122B1436943F04A
:100810008003436103E0436923F08003436180293F
:100820000BD02AB1036801F01E042343036004E0E7
:10083000036801F01E04A343036010BD10B500223D
:100840000268134B1A40CC680B6823434C6923435E
:100850008C692343CC6923430C6A23434C6A2343AA
:100860008C6A23434C6B23438C6B23431A430260F3
:10087000426922F00702D1E90B3423431A43426153
:100880000B6943604B6883608B68C36010BD0000D8
:100890003F801CF07047000000B587B0012108467A
:1008A00000F084FE0121102000F0A0FE07220A21A2
:1008B0001D4800F031FA072209211B4800F02CFAEC
:1008C00000208DF81A0001208DF81B0002208DF801
:1008D00018000002059002208DF8190005A91248A1
:1008E00000F0D2F902208DF818004002059005A909
:1008F0000D4800F0C9F94FF4E13001900020ADF847
:100900000800ADF80A00ADF80C00ADF810000C209E
:10091000ADF80E0001A9054802F092FD012103483F
:1009200002F074FD07B000BD00000240001001405D
:1009300010B5024600200023102A03D14FF02044B6
:10094000636E0FE0B2F5807F02D10A4C236809E0A4
:10095000B2F5805F03D1074C2034236802E0054CD8
:10096000D434236803EA01048C4201D0002000E063
:10097000012010BD840000A00021D0E900231A430B
:1009800083685B1E42EA4312C36842EA4321014A7C
:1009900011607047500100A070B5002200210023B3
:1009A00000240568AD00A5F1C045D5F840216FF3DE
:1009B0000E02D0E901563543C66835430669354312
:1009C0004669354386693543C6693543066A35430A
:1009D000466A35432A43056835B90568AD00A5F177
:1009E000C045C5F8402111E03B4D2B686FF30E0365
:1009F000D0E907563543466A35432B43364D2B60C5
:100A00000568AD00A5F1C045C5F84021056875BB76
:100A1000314D0835066855F8261001F07041856A99
:100A20002D686D1E866A7668761E45EA0616856A0A
:100A3000AD686D1E46EA0526856AED686D1E46EABC
:100A40000536856A2D8A6D1E46EA0546856AAD8A99
:100A50006D1E46EA0556856A2D7E6D1E46EA0565C1
:100A600029431D4D0835066845F8261032E0FFE79A
:100A7000194D0835066855F8261001F07041856A51
:100A80002D686D1E866A7668761E45EA0616856AAA
:100A9000AD686D1E46EA0526856A2D8A6D1E46EAFA
:100AA000054529430C4D08352C6804F07044856ACF
:100AB000ED686D1E2E03856AAD8A6D1E46EA0555EA
:100AC0002C434FF02045C5F84841034D08350668D2
:100AD00045F8261070BD0000400100A004490968D7
:100AE00041EA40014FF02042C2F854117047000023
:100AF000540100A02DE9FC4107460D4600260024C4
:100B000000200090019008205B4908601020486098
:100B1000402088600020C8604FF48060086108466B
:100B200000F066FF1020FFF73BFC044614B120469E
:100B3000BDE8FC815148008800044F490860372017
:100B40004860402088600020C8604FF480600861E1
:100B5000084600F04DFF3720FFF722FC04460CB199
:100B60002046E5E74FF0FF3045490860082048601F
:100B7000302088600220C8600020086101204861A0
:100B8000084600F0ABFE00203B4908603320486077
:100B9000402088600020C8604FF4806008610846EB
:100BA00000F026FF3320FFF7FBFB04460CB1204684
:100BB000BEE709E04FF4001000F0BCFE20B100F0E9
:100BC00011FF4DF82600761C2E48006840F22A617D
:100BD00008400028EED0082000F0ACFE28B1082024
:100BE00000F064FE04242046A2E7022000F0A2FEEA
:100BF00028B1022000F05AFE0224204698E7202067
:100C000000F098FE28B1202000F050FE0624204677
:100C10008EE74FF4007000F08DFE30B14FF400709D
:100C200000F044FE0724204682E740F2FF5000F027
:100C30003DFE00980006009901F47F4140EA012042
:100C4000009901F47F0140EA1120009940EA116007
:100C5000686001980006019901F47F4140EA012093
:100C6000019901F47F0140EA1120019940EA1160E5
:100C7000286020465CE7000040B7002020000020EC
:100C800054B70020342C0140F0B50A46002100235F
:100C9000002400BF3DE0012505FA01F3156805EACF
:100CA00003049C4234D105684F000326BE40B5437F
:100CB000056015794E00B540066835430560157925
:100CC000012D02D01579022D16D185684F0003261B
:100CD000BE40B543856055794E00B54086683543C2
:100CE0008560456801268E40B54345604568967924
:100CF0008E40B6B235434560C5684F000326BE40FE
:100D0000B543C560D5794E00B540C6683543C5606A
:100D1000491C1029BFD3F0BDF0B5002300244D07B6
:100D2000ED0E02FA05F3CE1000F1200555F826501D
:100D30004E07F70E0F26BE40B543CF1000F1200638
:100D400046F82750CE1000F1200555F8265045EA08
:100D50000304CE1000F1200545F82640F0BD418384
:100D600070470183704700BFFEE700001CB50121FA
:100D700040F2FF1000F01AFC0420009002208DF8D1
:100D800005008DF8040000208DF806008DF807009E
:100D90006946AF48FFF778FF0E220221AC48FFF703
:100DA000BBFF082000906946A948FFF76DFF0E229F
:100DB0000321A748FFF7B0FF4FF480700090694609
:100DC000A348FFF761FF0E220821A148FFF7A4FF07
:100DD0000120009069469F48FFF756FF0922002135
:100DE0009C48FFF799FF4FF40060009069469A48CD
:100DF000FFF74AFF0E220B219748FFF78DFF4FF4B4
:100E00008050009069469448FFF73EFF0E220C2167
:100E10009148FFF781FF0220009069468D48FFF757
:100E200033FF092201218B48FFF776FF4020009015
:100E300069468A48FFF728FF0E2206218748FFF7F8
:100E40006BFF2020009069468548FFF71DFF0E22AA
:100E500005218348FFF760FF4020009069468048E5
:100E6000FFF712FF0E2206217D48FFF755FF4FF4D2
:100E70000050009069467648FFF706FF0E220D21CC
:100E80007348FFF749FF4FF480600090694673484C
:100E9000FFF7FAFE09220A217048FFF73DFF4FF4E1
:100EA0000040009069466A48FFF7EEFE0E220F21CF
:100EB0006748FFF731FF0120009069466948FFF756
:100EC000E3FE0E2200216748FFF726FF80200090F6
:100ED00069466548FFF7D8FE0E2207216248FFF7F2
:100EE0001BFF0420009069465E48FFF7CDFE0E22EE
:100EF00002215C48FFF710FF102000906946584817
:100F0000FFF7C2FE0E2204215548FFF705FF4FF4FC
:100F10008050009069465148FFF7B6FE0E220C2122
:100F20004E48FFF7F9FE4020009069464F48FFF712
:100F3000ABFE0E2206214D48FFF7EEFE4FF4006097
:100F4000009069464548FFF79FFE0E220B2143485B
:100F5000FFF7E2FE1020009069464248FFF794FE3A
:100F60000E2204213F48FFF7D7FE08200090694673
:100F70003948FFF789FE0E2203213748FFF7CCFEE0
:100F80004FF48070009069463248FFF77DFE0E22D4
:100F900008213048FFF7C0FE4FF40070009069460A
:100FA0002C48FFF771FE0E2209212A48FFF7B4FEF4
:100FB0008020009069462948FFF766FE0E2207212F
:100FC0002648FFF7A9FE4FF4806000906946254847
:100FD000FFF75AFE0E220A212248FFF79DFE4FF42A
:100FE0000070009069461F48FFF74EFE0E2209214F
:100FF0001C48FFF791FE4FF48060009069461C4842
:10100000FFF742FE0E220A211948FFF785FE102045
:10101000009002208DF8050001208DF804000020CA
:101020008DF8060001208DF8070069460F48FFF78C
:101030002BFE8020009069460C48FFF725FE10210A
:101040000A48FFF78EFE80210848FFF78AFE1CBD84
:10105000001C024000040240000002400018024050
:10106000001002400020024000080240000C024034
:101070000014024010B5FFF779FE00F057F800F0B9
:1010800001F810BD00B591B03020019040F24F3012
:101090000290192003904FF4FC70049002200590F8
:1010A000FF20069000200990089007900A904FF4C6
:1010B00080600B9005200C904FF050400D9040F256
:1010C00043600E904FF4F07010904FF4C8600F9092
:1010D000002005904FF4C0600B9007200C90114841
:1010E0000D9040F683400E904FF4F07010904FF446
:1010F00048600F9001A90C4800F07BF901210A48D3
:10110000803800F06BF90121074800F067F90120F1
:1011100000F0FAF9012000F08BF8012000F076F8D9
:1011200011B000BD00B80BD00469014000B58FB00C
:1011300002221421C82000F01FFB4FF4803000F081
:1011400009FB012000F012FB00BF3D2000F0E2FA95
:101150000028FAD00121880600F048FA0121C805CC
:1011600000F024FA002000900190029003900120EA
:10117000049005902F2006901820079040F24F30E1
:1011800008904FF4FC70099040F221400A9040F220
:101190000E200B9000200C900E900D90684600F0F1
:1011A00059F80FB000BD00001CB50121802000F0EF
:1011B000FDF94FF48060009001208DF804000020BC
:1011C0008DF8060001208DF8070000208DF805003D
:1011D00069460D48FFF758FD4FF4006000906946DE
:1011E0000948FFF751FD4FF48050009069460648CA
:1011F000FFF74AFD4FF48060034918310880400032
:101200000880400008801CBD001C024030B1074926
:10121000096841F00101054A116005E003490968C8
:1012200021F00101014A1160704700001868014077
:1012300030B10749096841F48031054A116005E081
:101240000349096821F48031014A116070470000A8
:1012500018680140F0B50021002200230024002579
:1012600000265B4F3F68DFF86CC107EA0C07DFF828
:1012700060C1CCF80070078A390467463F68D0F82F
:1012800014C04CEA010C47EA0C07DFF844C1CCF863
:1012900000700CF104073F68DFF838C107EA0C075B
:1012A000DFF82CC10CF1040CCCF80070078B3A0469
:1012B00067463F68D0F81CC04CEA020C47EA0C07AE
:1012C000DFF80CC10CF1040CCCF800700CF1040731
:1012D0003F68DFF800C107EA0C07DFF8F4C00CF143
:1012E000080CCCF80070078C3B0467463F68D0F8C8
:1012F00024C04CEA030C47EA0C07DFF8D4C00CF119
:10130000080CCCF800700CF104073F68DFF8C4C08B
:1013100007EA0C07DFF8B8C00CF10C0CCCF8007031
:10132000078D3C046746D7F800C0C76A27434CEADC
:10133000070C274F0C37C7F800C03F1D3F68DFF888
:1013400098C007EA0C07DFF888C00CF1100CCCF845
:101350000070D0E9007C47EA0C07D0F808C047EAE3
:101360000C07D0F80CC047EA0C07DFF864C00CF19A
:10137000100CDCF800C047EA0C07DFF854C00CF191
:10138000100CCCF80070476B3D02078E3E04104FE6
:1013900024373F6807F07F47DFF834C00CF1240C96
:1013A000CCF8007046EA0507D0F838C047EA0C07C9
:1013B000DFF81CC00CF1240CDCF800C047EA0C0775
:1013C000DFF80CC00CF1240CCCF80070F0BD00006C
:1013D0000868014000F800F08F88FE0F21B1026814
:1013E00042F00102026003E0026822F001020260A2
:1013F00070472DE9F0410024002500260022002737
:101400000023B1F804C04FEA0C44D0F804C00CF437
:10141000704CC0F804C0D1F800C04CEA040CC0F80D
:1014200004C0B1F80CC04FEA0C45D0F808C00CF469
:10143000704CC0F808C0D1F808C04CEA050CC0F8E0
:1014400008C0D0F810C02CF0070CC0F810C0D1F8BC
:1014500010C0C0F810C0D1F81CC04FEA0C26B1F87B
:1014600020C04FEA0C4291F824C04FEA0C67D0F834
:1014700018C09C46C0F818C0D1F818C04CEA060C39
:101480004CEA020C4CEA070CC0F818C0D0F814C0A3
:101490002CF0FF0CC0F814C0D1F814C0C0F814C070
:1014A000D0F81CC040F207782CEA080CC0F81CC029
:1014B000D1E90AC84CEA080CC0F81CC0D0F828C012
:1014C0009C46C0F828C0D1F830C0C0F828C0B1F898
:1014D00038C04FEA0C43D0F82CC00CF0E02CC0F818
:1014E0002CC0D1F834C04CEA030CC0F82CC0D0F8A2
:1014F00030C06FF30A0CC0F830C0D1F83CC0C0F85F
:1015000030C0BDE8F081000001490860704700006C
:101510002468014000BFFEE77047000070B500215D
:1015200000230F22C4781CB3174C246804F4E06431
:10153000C4F5E064C4F30721C1F10404E3B20A4135
:1015400044789C40E1B28478144021430C07210E7A
:101550000E4C05786155047804F01F050124AC4059
:1015600005786D11AD0005F1E025C5F8004109E0F1
:10157000047804F01F050124AC40054D067876116F
:1015800045F8264070BD00000CED00E000E400E0EE
:1015900080E100E002490143024A11607047000007
:1015A0000000FA050CED00E07047000029B1064A82
:1015B00012680243044B1A6004E0034A1268824333
:1015C000014B1A60704700003038024029B1064ACA
:1015D00012680243044B1A6004E0034A1268824313
:1015E000014B1A60704700003838024029B1064AA2
:1015F00012680243044B1A6004E0034A12688243F3
:10160000014B1A60704700004438024029B1064A75
:1016100012680243044B1A6004E0034A12688243D2
:10162000014B1A607047000024380240F0B50021D9
:1016300000220024022500260223324F3F6807F0D3
:101640000C0121B1042905D0082937D105E02E4F1E
:10165000076036E02D4F076033E02A4F3F1F3F6899
:10166000C7F38056274F3F1F3F6807F03F036EB117
:10167000264FB7FBF3F7DFF88CC0ACF1040CDCF8B5
:1016800000C0CCF3881C07FB0CF40CE01E4FB7FB2A
:10169000F3F7DFF870C0ACF1040CDCF800C0CCF359
:1016A000881C07FB0CF4174F3F1F3F68C7F3014727
:1016B0007F1C7D00B4FBF5F7076002E0124F076066
:1016C00000BF00BF0F4F3F6807F0F0010909104F3E
:1016D0007A5C0768D74047600A4F3F6807F4E051DB
:1016E000890A0B4F7A5C4768D7408760054F3F688F
:1016F00007F46041490B064F7A5C4768D740C760E2
:10170000F0BD0000083802400024F40040787D015C
:101710000000002010B501460022002300204A11DD
:10172000012A02D10A4C236808E0022A03D1084C9E
:101730007034236802E0064C7434236801F01F0201
:10174000012494401C400CB1012000E0002010BD99
:101750000038024001460020034A106820F440305F
:1017600008431060704700008C3802400149086748
:10177000704700000000474210B5830143EA01634F
:1017800043EA0273014C236010BD00008838024018
:101790007CB50546002400200090019000F0EAF896
:1017A00000F0007010B10E2420467CBD3D49098830
:1017B00088B26946FFF79EF904460CB12046F4E76B
:1017C000012D36D1019800F4802000282ED0354814
:1017D0000088000434490860372048604020886051
:1017E0000020C860A8020861084600F001F937200F
:1017F000FEF7D6FD04460CB12046D6E702202A4962
:10180000086006204860402088600020C8604FF4CF
:1018100080600861084600F0EBF80620FEF7C0FD86
:1018200004460CB12046C0E72046BEE725242046EA
:10183000BBE7019800F4803078B31A4800880004B0
:101840001949086037204860402088600020C8603F
:101850004FF480600861084600F0CAF83720FEF7B0
:101860009FFD04460CB120469FE700200E4908600A
:1018700006204860402088600020C8604FF48060E7
:101880000861084600F0B4F80620FEF789FD04461A
:101890000CB1204689E7204687E7FFE7252420464C
:1018A00083E700002000002040B7002001490860C5
:1018B00070470000382C0140014908607047000063
:1018C000382C01400149086070470000A080254283
:1018D00001490860704700008C85254200210B4BB0
:1018E00002681A601B1D42681A601A1D116821F0F7
:1018F000F701D0E902231A4303691A4343691A43E3
:101900001143024A0832116070470000242C014044
:1019100010B50121C802FFF779FE00214FF40060E5
:10192000FFF774FE10BD000001480068C0B27047A8
:10193000102C014001460020034A12680A400AB1F7
:10194000012000E000207047342C014001460020B7
:10195000034A12680A400AB1012000E000207047E3
:10196000342C01400248006800F00300704700007A
:10197000002C014008B501460020009002480844B0
:1019800000900098006808BD142C014010B500F0CC
:101990007BFF10BD29B1064A12680243044B1A604E
:1019A00004E0034A12688243014B1A60704700004A
:1019B0003C2C014000210A4A116847F6FF6291431E
:1019C000027D83681A4343681A43C3681A43036855
:1019D0001A4303691A431143014A1160704700001A
:1019E000042C01400148006870470000802C014031
:1019F0000021094B02681A601A1D11686FF30A0171
:101A0000D0E901231A43C3681A4303691A431143F7
:101A1000014A121D11607047082C014001490860FD
:101A200070470000002C01401CB50121FC20FFF78D
:101A3000BDFD02208DF804008DF8050000208DF812
:101A400006008DF80700012000906946D948FFF78D
:101A50001BF90C220021D748FFF75EF90220009005
:101A60006946D448FFF710F90C220121D148FFF74D
:101A700053F9042000906946CE48FFF705F90C227F
:101A80000221CC48FFF748F9082000906946C94870
:101A9000FFF7FAF80C220321C648FFF73DF91020A2
:101AA00000906946C348FFF7EFF80C220421C148B3
:101AB000FFF732F9202000906946BE48FFF7E4F8AE
:101AC0000C220521BB48FFF727F94FF48050009006
:101AD0006946B848FFF7D8F80C221146B548FFF719
:101AE0001BF94FF4005000906946B248FFF7CCF85C
:101AF0000C220D21AF48FFF70FF94FF48040009002
:101B00006946AC48FFF7C0F80C220E21A948FFF740
:101B100003F94FF4004000906946A648FFF7B4F877
:101B20000C220F21A348FFF7F7F801200090694627
:101B3000A148FFF7A9F80C2200219F48FFF7ECF815
:101B40000220009069469C48FFF79EF80C22012174
:101B50009948FFF7E1F81020009069469648FFF792
:101B600093F80C2204219448FFF7D6F82020009027
:101B700069469148FFF788F80C2205218E48FFF747
:101B8000CBF84FF48040009069468C48FFF77CF812
:101B90000C220E218948FFF7BFF84FF40040009057
:101BA00069468648FFF770F80C220F218348FFF73B
:101BB000B3F80120009069468048FFF765F80C22D1
:101BC00000217E48FFF7A8F80220009069467B4874
:101BD000FFF75AF80C2201217848FFF79DF8802082
:101BE000009069467648FFF74FF80C2207217448A9
:101BF000FFF792F84FF48070009069467048FFF745
:101C000043F80C2208216E48FFF786F84FF4007065
:101C1000009069466A48FFF737F80C2209216848A6
:101C2000FFF77AF84FF48060009069466448FFF748
:101C30002BF80C220A216248FFF76EF84FF400607F
:101C4000009069465E48FFF71FF80C220B215C48A4
:101C5000FFF762F84FF48050009069465848FFF74C
:101C600013F80C2211465648FFF756F84FF400506F
:101C7000009069465248FFF707F80C220D215048A2
:101C8000FFF74AF84FF48040009069464C48FEF751
:101C9000FBFF0C220E214A48FFF73EF84FF40040AC
:101CA000009069464648FEF7EFFF0C220F2144489A
:101CB000FFF732F84FF48070009069463F48FEF716
:101CC000E3FF0C2208213D48FFF726F84FF400708F
:101CD000009069463948FEF7D7FF0C2209213748A2
:101CE000FFF71AF84FF48060009069463348FEF71A
:101CF000CBFF0C220A213148FFF70EF8402000905C
:101D000069463048FEF7C0FF0C2206212D48FFF738
:101D100003F80120009069462B48FEF7B5FF0C221E
:101D200000212948FEF7F8FF4FF400600090694653
:101D30002048FEF7A9FF0C220B211E48FEF7ECFFFE
:101D40004FF40040009069461B48FEF79DFF0C22AF
:101D50000F211948FEF7E0FF4FF4807000906946AC
:101D60001548FEF791FF0C2208211348FEF7D4FF17
:101D70008020009069461348FEF786FF0C22072159
:101D80001048FEF7C9FF0220009069460C48FEF794
:101D90007BFF0C2201210A48FEF7BEFF01200090C4
:101DA00069460748FEF770FF0C2200210448FEF741
:101DB000B3FF1CBD0014024000180240000C02409A
:101DC00000100240001C02400008024000B593B021
:101DD000FFF72AFE01210846FFF7F8FB02200190D9
:101DE0000720029004200390072004900220059011
:101DF00006900790012008900020099004200A9086
:101E000010200B9040200C9080000D9000200E9030
:101E10004FF400600F90400010900020119001A836
:101E2000129008A8FEF7B8FD00F002F813B000BD4C
:101E30001FB500240120009008200190002002908E
:101E4000039000BF20210120FEF772FD0028F9D188
:101E50006846FEF791FD0A2000F042F8022000904B
:101E60000820019000200290039000BF2021012053
:101E7000FEF75EFD0028F9D16846FEF77DFD0320E0
:101E8000009008200190022002900020039000BFE3
:101E900020210120FEF74CFD0028F9D16846FEF70D
:101EA0006BFD40F2222404200090082001900120C4
:101EB0000290039400BF20210120FEF739FD002885
:101EC000F9D16846FEF758FD40F26A50FEF706FE6B
:101ED00000BF20210120FEF72BFD0028F9D11FBDF6
:101EE00001B581B000200090054901984843009059
:101EF00002E00098401E009000980028F9D10CBD27
:101F0000A086010008B5012000909DF8000008BDE2
:101F100070B50446002520480068032802D1272513
:101F2000284670BD1C48006838B11B48006801286D
:101F300003D01948006802282CD1B4F5805F02D183
:101F400027252846EDE7B4F5006F13D10120FFF7F0
:101F50001FFC0546F5B90020104908750860486067
:101F600088604FF40060C860002008610846FFF7F1
:101F700021FD0FE00020FFF70BFC054655B90020BE
:101F800006490875086048608860C86008610846AE
:101F9000FFF710FD2846C4E71C00002028B70020EA
:101FA000F0B5014600200022C04B1B7881F8563066
:101FB000BF4B1B88A1F85430BE4B1B681A0E930907
:101FC0000B70C2F383034B7002F003038B70B94BA9
:101FD0001B68C3F30742CA70B64B1B88C3F30722C2
:101FE0000A71B44B1A784A715B681A0E1301CB80E0
:101FF000B04B5B68C3F30742CB8843EA1213CB8034
:1020000002F00F030B72AB4B9B88C3F30722D3097B
:102010004B72C2F380138B72C2F34013CB72C2F3C4
:1020200000130B7300234B73A04B1B681BB19F4B1A
:102030001B68012B4FD193071B0D0B619D4B1A7928
:102040000B6943EA82030B619A4B9B681A0E0B697A
:1020500043EA92130B61C2F3C2030B7502F007034C
:102060004B75944B9B68C3F3074253098B75C2F3BE
:102070008203CB7593075B0F0B768E4B1B89C3F3E3
:1020800007220B7E43EAD2130B760B695B1C0024FC
:10209000C1E912340B7ED1E912649B1C012505FABB
:1020A00003F3DD17A6FB037C04FB03C306FB053328
:1020B000C1E912730C7A0123A3400B650027D1E913
:1020C00012560B6DA5FB034C06FB03C305FB073340
:1020D000C1E9124336E0754B1B68022B32D1754BB8
:1020E0001A7993069B0A0B61724B9B681A0E0B6957
:1020F00043EA02230B616F4B9B68C3F307420B69F2
:1021000013430B616B4B1B89C3F307220B6900243C
:102110005B1C64414FF400770026A3FB075C04FBC3
:1021200007C403FB06474FF4806600242B463D4658
:10213000A3FB067C05FB06C503FB0453C1E9127330
:1021400073100B65C2F3801301F8193F93065B0E01
:102150004B70584B1A7A4B7843EAD2134B7002F00B
:102160007F038B70534BDB681A0ED309CB70C2F31D
:1021700041130B71C2F382034B7193071B0F8B71D9
:102180004C4BDB68C3F307428B7943EA92138B71A4
:10219000C2F34013CB7100230B7202F001034B72A8
:1021A000444B9B89C3F30722D3098B72C2F380137C
:1021B000CB72C2F340130B73C2F300134B73C2F321
:1021C00081038B7302F00303CB733A4B1A7B5308E2
:1021D0000B7401234B74384B1B681A0ECA741939DF
:1021E000354B1B68C3F307421402CC85324B1B8866
:1021F000C3F30722CB8D1343CB852F4B1A781406DC
:102200000C635B681A0E0B6B43EA02440C632A4BA7
:102210005B68C3F307420B6B43EA02240C63264B53
:102220009B88C3F307220B6B13430B63224B1A7972
:1022300034235A54204B9B681A0E35235A541E4B94
:102240009B68C3F3074214068C631B4B1B89C3F3C3
:1022500007228B6B43EA02448C63174B1A7A8B6B11
:1022600043EA02248C63144BDB681A0E8B6B134316
:102270008B63114BDB68C3F307423C235B5C43EA8F
:1022800012143C235C5413071C0DCC870A4B9B890A
:10229000C3F30722CB8F1343CB87074B1A7B54081A
:1022A00040235C54012441235C54F0BD1C000020F9
:1022B00020000020A0B60020B0B6002008B5002005
:1022C0000090FFF71FFE012809D1684600F0CAFB05
:1022D00008B1FF2008BD0098C0F34320FAE7FF20B3
:1022E000F8E710B50424FFF7E9FF0446042C01D1F8
:1022F000002010BDFF2C01D10220FAE70120F8E7F1
:102300001CB5002001904FF4C060FFF743F9312065
:102310008DF8000001208DF8010000208DF80200EA
:1023200001208DF803006846FFF7F8F83B208DF890
:10233000000001208DF801006846FFF7EFF800F07B
:102340006DF9FFF7E5FA00F0BBF901909DF8040084
:1023500010B19DF804001CBD00F032F801909DF80A
:10236000040010B19DF80400F5E70020124908753B
:10237000086048608860C86008610846FFF71AFB7B
:102380000E48FFF70DFE01909DF8040040B90B4880
:10239000B0F8540002041046002100F047FB019001
:1023A0009DF8040020B94FF40060FFF7B1FD0190E3
:1023B0009DF80400CFE7000028B70020D0B6002029
:1023C00038B5002401200090FFF7CCFA10B925247D
:1023D000204638BD44480068042828D000204349DE
:1023E000086002204860C02088600020C8604FF468
:1023F000806008610846FFF7FBFAFEF76BF80446B9
:102400000CB12046E5E70020FFF7B4FA3849086030
:102410000420FFF7AFFA364948600820FFF7AAFA10
:10242000334988600C20FFF7A5FA3149C8602E486F
:10243000006858B12C480068012807D02A48006875
:10244000062803D028480068022816D10020274912
:10245000086003204860402088600020C8604FF476
:10246000806008610846FFF7C3FA69460320FEF75B
:1024700073F804460CB12046ABE71B4800680428FB
:102480002ED0BDF800001B490860BDF80000000414
:102490001649086009204860C02088600020C86094
:1024A0004FF4806008610846FFF7A2FAFEF712F8C1
:1024B00004460CB120468CE70020FFF75BFA0E497A
:1024C00008600420FFF756FA0B4948600820FFF720
:1024D00051FA094988600C20FFF74CFA0649C86098
:1024E0000024204675E700001C00002040B70020B3
:1024F000B0B6002020000020A0B6002030B58FB07C
:1025000004460D464FF0FA511E48FEF79DF8002193
:102510001C48FEF7B3F81B48FEF7BCF84FF000600C
:10252000009019480190029400200390012004902B
:10253000002005904FF48060069080000790800096
:102540000890002009904FF440300A9004200B902E
:1025500003200C904FF400000D9080100E906946FF
:102560000848FEF76BF9012210210648FEF749F9E9
:1025700020210448FEF73AF901210248FEF77EF8CF
:102580000FB030BD58640240802C014030B58FB090
:1025900004460D464FF0FA511E48FEF755F800214B
:1025A0001C48FEF76BF81B48FEF774F84FF000600C
:1025B000009019480190029440200390012004905B
:1025C000002005904FF48060069080000790800006
:1025D0000890002009904FF440300A9004200B909E
:1025E00003200C904FF400000D9080100E9069466F
:1025F0000848FEF723F9012210210648FEF701F9E9
:1026000020210448FEF7F2F801210248FEF736F8CF
:102610000FB030BD58640240802C01401CB5012130
:102620000C20FEF7C3FF0C2208212348FEF774FBA1
:102630000C2209212048FEF76FFB0C220A211E48BC
:10264000FEF76AFB0C220B211B48FEF765FB0C22F0
:1026500011461948FEF760FB0C2202211748FEF7CD
:102660005BFB4FF47060009002208DF805008DF840
:10267000040000208DF8060001208DF8070069464F
:102680000D48FEF701FB0420009069460B48FEF759
:10269000FBFA4FF48050009000208DF80700694647
:1026A0000548FEF7F1FA0121C802FEF79FFF01215C
:1026B0008805FEF77BFF1CBD00080240000C0240AD
:1026C000F8B5002000900025002400260027762081
:1026D0005F4908750020086048608860C86008612C
:1026E0000846FFF767F90320FFF798F90120FFF785
:1026F000E9F800205749086048608860C8604FF4D6
:10270000806008610846FFF773F9FDF733FE00901B
:102710009DF8000010B19DF80000F8BD4FF4D57091
:102720004C49086008204860402088600020C8604C
:102730004FF4806008610846FFF75AF9FDF75AFF29
:1027400000909DF8000020B90120434908608707E8
:1027500012E000203F490860372048604020886030
:102760000020C8604FF4806008610846FFF740F918
:102770003720FDF715FE009000203649086037200D
:102780004860402088600020C8604FF48060086185
:102790000846FFF72DF93720FDF702FE00909DF85F
:1027A0000000002851D13BE000202A490860372072
:1027B0004860402088600020C8604FF48060086155
:1027C0000846FFF715F93720FDF7EAFD00909DF860
:1027D000000010B19DF800009FE7204838431D49D4
:1027E000086029204860402088600020C8604FF4BD
:1027F000806008610846FFF7FBF8FDF791FE009046
:102800009DF8000010B19DF8000086E70020FFF75A
:10281000B1F80546012080EAD57080F00106641CFD
:102820001EB94FF6FF708442BED34FF6FF7084424C
:1028300004D31B2000909DF800006EE705F0804057
:10284000051E02D00220044908609DF8000064E7DC
:1028500028B7002040B700201C0000200000108096
:1028600010B50748006800F0C05040B1012005498C
:1028700008604FF0C25102485830FDF7E5FE10BD28
:10288000006402403000002010B54FF48070FFF764
:102890005DF850B10020254908704FF48070FFF7B3
:1028A0000BF801202249086037E00220FFF74EF8BC
:1028B00030B10220FFF700F802201C4908702CE01C
:1028C0000820FFF743F830B10820FEF7F5FF042099
:1028D0001649087021E02020FFF738F830B1202099
:1028E000FEF7EAFF06201149087016E01020FFF7F6
:1028F0002DF830B11020FEF7DFFF05200B490870DE
:102900000BE04FF40070FFF721F830B14FF4007086
:10291000FEF7D2FF07200549087000214CF23A303B
:10292000FFF738F80148007810BD000028000020AB
:102930002C0000202DE9F047814614461D46DDE9B4
:1029400008680027002032490870324908600120D9
:1029500031490860002031490860012140F22A30E5
:10296000FFF718F808FB06F14846FFF7C7FD0120FE
:10297000FEF7AEFF2A480068022808D106020202CC
:10298000002320462946FDF72FFC04460D46254826
:102990000660102023494860402088600020C860FD
:1029A0004FF4806008610846FFF722F81020FDF719
:1029B000F7FC074617B13846BDE8F0874FF0FF3007
:1029C0001949086008FB06F04860902088600220E2
:1029D000C86000200861012048610846FEF77EFFBC
:1029E0001048046012200F49486040208860002091
:1029F000C8604FF4806008610846FEF7F9FF1220B6
:102A0000FDF7CEFC07460FB13846D5E73846D3E789
:102A1000280000202C000020240000202C2C014045
:102A20001C00002040B7002054B7002070B50446B9
:102A30000D4600260A4804600720094948604020E6
:102A400088600020C8604FF4806008610846FEF787
:102A5000CFFF0720FDF7A4FC0646304670BD0000FE
:102A600040B7002070B50446002514B92625284635
:102A700070BD0F48008800040E4908600D204860B2
:102A8000402088600020C8604FF4806008610846DC
:102A9000FEF7AEFF0D20FDF783FC05460DB128467D
:102AA000E6E70020FEF766FF20602846E0E700002A
:102AB0002000002040B7002010B5002400200A4963
:102AC00008600C204860402088600020C8604FF4F7
:102AD000806008610846FEF78BFF0C20FDF760FC64
:102AE0000446204610BD000040B7002070B5002508
:102AF0006C1E00E0641E1848006838B9174800686A
:102B000020B91748007808B9002CF3D100201249E9
:102B10000860441E00E0641E1248006800F4005083
:102B200008B1002CF7D110480068012805D1FFF743
:102B3000C3FF054600200C4908600CB905B90425FF
:102B400040F2FF50FEF7B2FE0548007810B104488D
:102B5000007870BD2846FCE7300000202C000020E3
:102B600028000020342C01402400002070B50025EE
:102B70006C1E00E0641E1848006838B917480068E9
:102B800020B91748007808B9002CF3D10020124969
:102B90000860441E00E0641E1248006800F4805083
:102BA00008B1002CF7D110480068012805D1FFF7C3
:102BB00083FF054600200C4908600CB905B90425BF
:102BC00040F2FF50FEF772FE0548007810B104484D
:102BD000007870BD2846FCE7300000202C00002063
:102BE00028000020342C0140240000202DE9F0476B
:102BF000814615461E46DDE9087800240020494933
:102C00000870494908600120484908600020484987
:102C10000860012140F21A30FEF7BCFE08FB07F104
:102C20004846FFF7B3FC0120FEF752FE414800681A
:102C3000022808D107020202002328463146FDF788
:102C4000D3FA05460E463C48076010203A494860D2
:102C5000402088600020C8604FF48060086108460A
:102C6000FEF7C6FE1020FDF79BFB044614B120467C
:102C7000BDE8F0873148008800042F4908603720FC
:102C80004860402088600020C8604FF48060086180
:102C90000846FEF7ADFE3720FDF782FB04460CB177
:102CA0002046E5E72448C0F8008017202249486004
:102CB000402088600020C8604FF4806008610846AA
:102CC000FEF796FE1720FDF76BFB04460CB120467D
:102CD000CEE71948056019201749486040208860F0
:102CE0000020C8604FF4806008610846FEF780FE4F
:102CF0001920FDF755FB04460CB12046B8E74FF00C
:102D0000FF300F49086008FB07F04860902088609A
:102D10000020C8600861012048610846FEF7DEFD1A
:102D20002046A5E7280000202C00002024000020D9
:102D30002C2C01401C00002040B700202000002067
:102D400054B7002021B1028842F04002028004E022
:102D500002884FF6BF731A400280704770B505466F
:102D60000C461646402010490880032000F0B0F9B8
:102D7000C4F3074000F0ACF9C4F3072000F0A8F951
:102D8000E0B200F0A5F904E0FF2000F0A1F92870FE
:102D90006D1C301EA6F101018EB2F5D14020024912
:102DA000891E088070BD00001A1402402DE9F05FF2
:102DB00007460E4614464FF00008C146C24600259D
:102DC000AB4606F0FF0ACAF10000C5B22046E11783
:102DD00004EB1161C1F30728E11704EB116109123B
:102DE000A4EB012101F0FF09BAF1000F20D1B8F1E5
:102DF000000F05D122463146384600F0D7F864E08E
:102E000009E04FF480723146384600F0CFF806F5FD
:102E1000807607F58077B8F10000A8F1010101F094
:102E2000FF08EED14A463146384600F0BFF84CE084
:102E3000B8F1000F18D1A94510DDA9EB050000F08D
:102E4000FF0B2A463146384600F0B0F82E442F4496
:102E50005A463146384600F0A9F836E02246314657
:102E6000384600F0A3F830E0601B84B22046E1173A
:102E700004EB1161C1F30728E11704EB116109129A
:102E8000A4EB012101F0FF092A463146384600F043
:102E90008DF82E442F4409E04FF4807231463846B5
:102EA00000F084F806F5807607F58077B8F1000029
:102EB000A8F1010101F0FF08EED1B9F1000F04D033
:102EC0004A463146384600F071F8BDE8F09F0000F0
:102ED00000B587B001212020FEF768FB012108051D
:102EE000FEF784FB052207212E48FDF715FF05227A
:102EF00008212C48FDF710FF052209212948FDF77C
:102F00000BFF8020009002208DF805008DF8040052
:102F100000208DF806008DF8070069462148FDF76E
:102F2000B3FE4FF48070009069461E48FDF7ACFE7A
:102F30004FF40070009069461A48FDF7A5FE402046
:102F4000009001208DF8040069461648FDF79CFEAC
:102F500040201449183108800020ADF808004FF4D3
:102F60008270ADF80A000020ADF80C000220ADF828
:102F70000E000120ADF810004002ADF81200002054
:102F8000ADF81400ADF816000720ADF8180002A93E
:102F9000054800F02DF901210348FFF7D3FE07B0E3
:102FA00000BD0000001402400050014070B505460D
:102FB0000C46164600F0F2F8402014490880022022
:102FC00000F086F8C4F3074000F082F8C4F307204D
:102FD00000F07EF8E0B200F07BF8B6F5807F04DD0B
:102FE0004FF480760AA000F09BFA03E0287800F006
:102FF0006FF86D1C301EA6F101018EB2F6D1402093
:103000000249891E088000F09FF870BD1A14024022
:103010003C3C2D464C4153482D4552524F522D3E7B
:103020003E205350495F464C4153485F50616765AD
:10303000577269746520746F6F206C6172676521C7
:103040000A0000002DE9F041002400250026002799
:1030500040200E4908809F2000F03AF8FF2000F041
:1030600037F80546FF2000F033F80646FF2000F051
:103070002FF8074640200549891E0880280440EAA9
:10308000062040EA07042046BDE8F0811A140240F9
:1030900010B5044600F082F800F056F840200B49C5
:1030A0000880202000F014F8C4F3074000F010F866
:1030B000C4F3072000F00CF8E0B200F009F840205B
:1030C0000249891E088000F03FF810BD1A14024022
:1030D00010B504464FF48050194908600AE01849B9
:1030E0000868411E164A116020B9002000F09EF8C1
:1030F000C0B210BD0221134800F06CF80028EED0D9
:103100002146104800F072F84FF480500C490860D6
:103110000AE00B490868411E094A116020B90120E4
:1031200000F084F8C0B2E4E70121064800F052F84C
:103130000028EED0034800F056F8C0B2D9E70000EE
:10314000180000200050014010B500244020114913
:1031500008800520FFF7BCFF4FF480500E4908603F
:1031600000BFFF20FFF7B4FF04460B490868411E6B
:10317000094A116018B9042000F058F810BD04F095
:1031800001000028EDD140200249891E088000BFBF
:10319000F4E700001A1402401800002010B5402087
:1031A000044908800620FFF793FF40200149891E4B
:1031B000088010BD1A14024010B540200449088050
:1031C000AB20FFF785FF40200149891E088010BD14
:1031D0001A1402400246002013890B400BB1012053
:1031E00000E0002070470146888970478181704760
:1031F00010B50022028802F441520B884C88234308
:103200008C882343CC8823430C8923434C89234354
:103210008C892343CC8923431A430280838B4FF24A
:10322000FF74234083830B8A038210BD10B50446CC
:10323000214602A000F074F9002010BD3C3C2D4650
:103240004C4153482D4552524F522D3E3E20535033
:103250004920B5C8B4FDB3ACCAB1216572726F72B2
:10326000436F6465203D2025640A0000704700001C
:103270000CB50020019000904148006840F4803077
:103280003F49086000BF3E48006800F400300090ED
:103290000198401C0190009818B90198B0F5A04F12
:1032A000F1D13748006800F4003010B101200090DF
:1032B00001E0002000900098012860D130484030A3
:1032C000006840F080502E49403108602D48006869
:1032D00040F440402B4908602948083000682849DC
:1032E000083108600846006840F40040086008465D
:1032F000006840F4A05008602348091F0860081FB8
:10330000006840F08070091F086000BF1C4800681A
:1033100000F000700028F9D01A48006840F48030AE
:103320001849086000BF1748406800F48030002842
:10333000F9D01448006840F400301249086000BF1A
:103340001048406800F400300028F9D040F20570C1
:103350000E4908600A480830006820F00300084958
:10336000083108600846006840F00200086000BFAD
:1033700003480830006800F00C000828F8D10CBDA4
:103380000038024000700040195A4007003C0240DB
:1033900010B500F02FF810BD10B51248006840F0CD
:1033A00001001049086000200E49083108600D48EE
:1033B00000680D4908400B4908600C48091D086069
:1033C000081F006820F48020091F086000200549BC
:1033D0000C310860FFF74CFF4FF0006004490860B3
:1033E00010BD000000380240FFFFF6FE1030002440
:1033F00008ED00E00448006820B103480068401E62
:1034000001490860704700003400002021B1828922
:1034100042F40052828104E082894DF6FF731A4023
:103420008281704702460020B1F5007F00D100BFC5
:1034300013880B400BB1012000E000207047000012
:103440002DE9FF4705460E460024A14600BFA046D1
:10345000B08900B100BF2C8A24F44054F0880443A2
:103460002C82AC8941F20C608443B08831890843D6
:10347000718908430443AC81AC8A24F44074B08958
:103480000443AC826846FEF7D1F82048854202D05A
:103490001F48854202D1DDF80C9001E0DDF808906C
:1034A000A88900F4004040B109EBC90000EB091005
:1034B00031684900B0FBF1F707E009EBC90000EB08
:1034C000091031688900B0FBF1F76420B7FBF0F018
:1034D00004012009642101FB1078A88900F4004050
:1034E00040B1322000EBC800B0FBF1F000F0070063
:1034F000044308E0322000EB08106421B0FBF1F037
:1035000000F00F0004432C81BDE8FF87001001404C
:1035100000140140C1F308028280704700BFFEE73B
:103520000FB4054B10B503A9044A029800F018F82F
:1035300010BC5DF814FB0000414C00084400002062
:1035400002E008C8121F08C1002AFAD1704770476C
:10355000002001E001C1121F002AFBD170470000CA
:103560002DE9FF4F89B09B460446002506E025283B
:103570000BD05A460B999047641C6D1C207800288C
:10358000F5D10DB02846BDE8F08F0027B8460122DE
:10359000474900E0074314F8013F203B02FA03F0DB
:1035A0000842F7D120782E2819D114F8010F47F0DE
:1035B00004072A280ED06FF02F022078A0F13001E6
:1035C00009290CD808EB880102EB410100EB010846
:1035D000641CF2E70A98641C50F8048B0A90207867
:1035E0000028CED0642808D0692806D075281ED0BF
:1035F0005A460B9990476D1C58E00A994FF00A09FA
:1036000001C90A91002802DA40422D2102E0390561
:1036100004D52B218DF82010012103E0F90704D0F7
:103620002021F7E78A4608AE0DE00021FAE70A9963
:103630004FF00A0901C90A91F7E74946FCF705FE70
:10364000303106F8011D0028F7D1ADEB060000F17E
:103650002009780701D44FF00108C84502DDA8EB26
:10366000090000E000208046002706E008A85A462E
:10367000C05D0B9990476D1C7F1C5745F6DB04E03D
:1036800030205A460B9990476D1CB8F10001A8F103
:103690000108F5DC05E016F8010B5A460B99904736
:1036A0006D1CB9F10001A9F10109F4DC641C65E7A6
:1036B0000928010070B504460D4600202071401E07
:1036C000E0622946204601F02DFD08B1032070BDBF
:1036D00094F82E1294F82F0241EA00204AF6552160
:1036E000884201D00220F2E794F86900010694F8BC
:1036F000680041EA004194F8670041EA002094F82C
:103700006610084320F07F400D49884201D1002017
:10371000DDE794F88500010694F8840041EA004151
:1037200094F8830041EA002094F88210084320F0C6
:103730007F400349884201D10020C8E70120C6E745
:1037400046415400024600E0521C107810B1107837
:103750008842F9D1107870470246891E5069801E50
:10376000884201D8002070479378906A01FB0300DB
:10377000F9E700002DE9F04780460C46A17EE07E87
:1037800041EA002010B10020BDE8F087207800F069
:103790003F00401E00EB800101EBC0064FF0010925
:1037A000002524E01A48405D205C1949495D214408
:1037B000497840EA0127B9F1000F11D0FF2E0BD252
:1037C000384600F09BFF82463146761C38F81100DF
:1037D00000F094FF824501D00020D5E7B94605E00E
:1037E0004FF6FF70874201D00020CDE76D1C0D2DF4
:1037F000D8D3207800F0400038B1B9F1000F04D0E0
:1038000038F8160008B10020BEE70120BCE7000030
:10381000C85400082DE9F04704468946B9F1000F65
:1038200006D1E76817B16069B84215D8012713E0DF
:103830004946204601F07CFA0646022E02D20120BB
:10384000BDE8F087701C08B93046F9E76069B042FE
:1038500001D93046F4E74F463D4600BF6D1C606914
:10386000A84204D80225BD4201D90020E8E7294634
:10387000204601F05DFA064606B909E0701C08B161
:10388000012E01D13046DBE7BD42E7D10020D7E76A
:1038900000BF6FF070422946204601F05DFC804673
:1038A000B8F1000F08D1B9F1000F05D02A464946FA
:1038B000204601F051FC8046B8F1000F0BD1E560C5
:1038C0002069401C78B12069401E2061607940F079
:1038D0000100607107E0B8F1010F02D14FF0FF3035
:1038E00000E0012005462846AAE700002DE9F34F35
:1038F00083B0814604980068019002E00198401C62
:103900000190019800782F28F8D0019800785C2861
:10391000F4D0D9F81CA000252F4600BF38467F1CE4
:1039200001990C5C202C03DB2F2C01D05C2C00D1E6
:1039300032E0FF2D03D3062005B0BDE8F08FE4B2DE
:10394000812C13DBE0B2FE2810DC38467F1C019985
:103950000E5C06EB042084B2402E01DB7E2E05DDDA
:10396000802E01DBFE2E01DD0620E5E70121204649
:1039700000F086FE04460CB90620DDE7802C06DA4E
:10398000214671A0FFF7DEFE08B10620D4E72846E5
:103990006D1C2AF81040C1E700BF0198C1190498B6
:1039A0000160202C01DA042000E00020804608E0BD
:1039B000681E3AF81040202C02D02E2C00D002E0D5
:1039C0006D1E002DF4D100BF0DB90620B4E7002014
:1039D0002AF815000B222021D9F8180001F098FBD5
:1039E000002700E07F1C3AF817002028FAD03AF8A8
:1039F00017002E28F6D00FB148F0030800E06D1E26
:103A000025B1681E3AF810002E28F8D1002006468D
:103A100002904FF0080B00BF38467F1C3AF8104068
:103A200004B963E0202C03D02E2C04D1AF4202D085
:103A300048F00308F0E70298584501D2AF4214D18C
:103A4000BBF10B0F02D148F003084FE0AF4201D0A9
:103A500048F00308AF4200D948E02F460820029002
:103A60004FF00B0BB006060ED6E7802C09DB204684
:103A700000F044FE0021009000F002FE044648F0F1
:103A80000208FF2C11DDABF101000299884204D835
:103A900048F00308CDF808B0BEE72212D9F8183074
:103AA0000298411C02911A5419E024B1214629A020
:103AB000FFF748FE18B15F2448F003080FE0412CDF
:103AC00004DB5A2C02DC46F0020608E0612C06DB1F
:103AD0007A2C04DC46F00106A4F1200084B2D9F867
:103AE00018300298411C02911C5495E700BFD9F888
:103AF00018000078E52803D10520D9F818100870BF
:103B0000BBF1080F01D1B006060E06F00C000C2820
:103B100003D006F00300032801D148F0020808F0A2
:103B2000020058B906F00300012801D148F010083E
:103B300006F00C00042801D148F00808D9F8180054
:103B400080F80B800020F7E6222A3A3C3E3F7C7F3B
:103B5000000000002B2C3B3D5B5D00002DE9F04197
:103B600004460E460021204600F0CDF90546EDB989
:103B7000002700BF2169206801F0D4FA054605B18D
:103B800013E060690078E52802D06069007820B908
:103B9000781C0746B04201D107E0002701212046EA
:103BA00000F07FF80546002DE4D000BF042D00D1C1
:103BB00007252846BDE8F0812DE9F047044600219D
:103BC000204600F0A0F9074617B13846BDE8F08757
:103BD0004FF0FF09CA464FF6FF70208400BF2169ED
:103BE000206801F09FFA074607B157E065692E7813
:103BF0000EB9042752E0E87A00F03F08E52E05D020
:103C000008F0080040B1B8F10F0F05D04FF0FF09E0
:103C10004FF6FF7020843AE0B8F10F0F1CD1E06935
:103C200078B306F0400030B195F80DA026F04006BC
:103C3000B146E08820844E450AD1687B504507D1C3
:103C40002946E069FFF796FD10B1A9F1010000E0F7
:103C5000FF2000F0FF091AE0B9F1000F05D1284656
:103C600001F07CFB504500D118E0A069C07A00F05B
:103C7000010038B90B222846A16901F029FA08B9D8
:103C80000CE004E04FF0FF094FF6FF7020840021A4
:103C9000204600F006F80746002FA0D000BF3846A7
:103CA00094E72DE9F04104468846E088461CB0B20E
:103CB00008B1206910B90420BDE8F0812168488965
:103CC000C11700EBD1614911B6FBF1F201FB1261A2
:103CD000002971D12069401C2061E06828B9206862
:103CE0000089B04268D80420E6E721684889C117F6
:103CF00000EBD1614911B6FBF1F122689278521EB6
:103D00001140002958D1E168206801F011F80546FA
:103D1000012D01D80220CFE7681C08B90120CBE7AC
:103D200020684069A84241D8B8F1000F01D10420B1
:103D3000C2E7E1682068FFF76DFD05460DB9072071
:103D4000BAE7012D01D10220B6E7681C08B90120AD
:103D5000B2E7206801F076FB08B10120ACE72168EA
:103D60004A8901F13000002101F0D2F9294620688A
:103D7000FFF7F2FC2168C86200270EE001202168ED
:103D80000871206801F05EFB08B1012094E720680B
:103D9000C06A401C2168C8627F1C20688078B842D5
:103DA000ECD82068C06AC01B2168C862E56029465B
:103DB0002068FFF7D1FC2061E68021684889C1179F
:103DC00000EBD1614911B6FBF1F201FB12612268EF
:103DD000303202EB4111616100206DE72DE9FE4FA9
:103DE0000446D4F81880D4F81C900C22414668464A
:103DF00001F081F900BF9DF80B0000F0010020B335
:103E0000002088F80B00E06101260CE033464A46AA
:103E10006946404600F026FF2046FFF7CDFE0546E6
:103E200005B102E0761C642EF0D300BF642E02D1EF
:103E30000720BDE8FE8F042D01D02846F9E79DF844
:103E40000B0088F80B00C4F81C909DF80B0000F0E4
:103E5000020060B1002600E0761C39F81600002848
:103E6000FAD106F119000D21B0FBF1F700E00127AE
:103E700039462046FFF772FE054645BB781E071EF1
:103E800025D0E088C11B204600F03DF80546F5B975
:103E9000A06901F063FA824600BF2169206801F041
:103EA00041F9054605B111E0FAB253466169E0698E
:103EB00000F03EFE01202168087100212046FFF736
:103EC000F0FE054615B9781E071EE6D100BFC5B93C
:103ED0002169206801F026F9054695B920220021C4
:103EE000606901F015F90B22D4E9050101F003F92D
:103EF000A069C07A00F01800616908730120216888
:103F00000871284695E72DE9F04104460E46E68003
:103F1000A568012D03D020684069A84202D802207C
:103F2000BDE8F0812DB920680078032801D1206810
:103F3000456A45B920680089B04201D80220EFE700
:103F40002068476A24E021684889C11700EBD161E5
:103F500049112268927811FB02F812E02946206884
:103F600000F0E6FE0546681C08B90120D8E7022DDE
:103F700003D320684069A84201D80220D0E7A6EB0D
:103F800008064645EAD229462068FFF7E5FB0746C2
:103F9000E5600FB90220C3E721684889C11700EB2B
:103FA000D1614911B6FBF1F1394421612168488999
:103FB000C11700EBD1614911B6FBF1F201FB1261AF
:103FC0002268303202EB411161610020A8E770B530
:103FD0000446012514B1012C16D105E0FEF790F935
:103FE00008B925F0010511E0FEF772FF4FF4FA76EB
:103FF00000BF701E80B2061EFBD1FFF7DDF8012066
:1040000000F096F8054601E0012500BF00BF2846F4
:1040100070BD00002DE9F04706460D4614464FF0EE
:10402000040916B1012E35D11EE0012D04D0022D58
:104030000ED0032D14D110E01A48D0F850C06246BB
:104040000023D0E912713846FCF7CEF8206007E073
:104050001448B0F85000208002E00120206000BF2A
:1040600000BF4FF0000918E0012D04D0022D06D04A
:10407000032D0BD107E04FF42060206006E04FF4E1
:104080008050208002E00120206000BF00BF4FF080
:10409000000902E04FF0040900BF00BF4846BDE838
:1040A000F0870000D0B600202DE9FC47074688467F
:1040B00014461E464FF0040917B1012F30D122E0FB
:1040C0001A48B0F8500080B2CDE900061748006DDC
:1040D00000FB04F10A4600234046FEF72BFC054690
:1040E0001DB101208146BDE8FC87FEF7FFFC0546B7
:1040F00015B101208146F6E700BFFEF7F2F800286F
:10410000FBD181460FE004F5C0644FF6FF7000EA72
:10411000063221034046FEF721FE4FF0000902E07F
:104120004FF0040900BF00BF4846DCE7D0B60020CE
:1041300070B50546012415B1012D0DD102E024F022
:1041400001040BE0FEF77EFF0649884202D124F00D
:10415000010400E0012401E0012400BF00BF20466B
:1041600070BD00001840EF002DE9FC4780468946ED
:1041700014461D464FF0040A15B90420BDE8FC871B
:10418000B8F1000F03D0B8F1010F33D121E01C4882
:10419000B0F8500080B2CDE900051948006D00FB71
:1041A00004F10A4600234846FEF720FD064616B1F4
:1041B00001208246E2E7FEF7D9FC064616B101204F
:1041C0008246DBE700BFFEF78CF80028FBD1824671
:1041D00013E004F5C06427033846FEF759FF4FF695
:1041E000FF7000EA053239464846FEF7DFFD4FF022
:1041F000000A02E04FF0040A00BF00BF5046BDE7CE
:10420000D0B6002070B50546284600F0E0F9044617
:1042100034B9284601F03FF904460CB90020286063
:10422000204670BDF7B582B016460398019001A8EC
:1042300000F022FE0546002D02DA0B2005B0F0BD8D
:104240000E4850F825400CB100202070029810B1A3
:104250000020029908700949029841F82500029847
:1042600008B1012E01D00020E8E7002203A902A82E
:1042700000F072FA07463846E0E7000038000020F8
:104280002DE9F743ADF50C7D0546164625B9092005
:104290000DF50F7DBDE8F0830020286006F01F06B5
:1042A00026F001028DA983A800F056FA0746002FD8
:1042B00074D180A88990CDF828D283A88D9900F078
:1042C00077FC0746889C0FB904B9062706F01C0046
:1042D00000285CD04FB1042F03D183A8FFF77EFDE7
:1042E000074646F00806889C09E0E07A00F01100D5
:1042F00008B1072703E006F0040000B10827002FEB
:1043000055D106F00800002851D000F0B1FD8046DC
:1043100084F80E804FEA1821E1734FEA18412174A6
:104320004FEA1861617484F816804FEA1821E1752C
:104330004FEA184121764FEA186161760020E07259
:10434000207700216177A177E1772146839800F0FB
:10435000B8FD81460021204600F0F8FF0120839936
:104360000871B9F1000F22D08398D0F82C8049460B
:10437000839800F0B5FF0746CFB9A9F101008399F2
:10438000C8604146839800F0CDFE07460FE077B93C
:10439000E07A00F0100010B1042708E02DE006F0EC
:1043A000020020B1E07A00F0010000B1072747B910
:1043B00006F0080008B146F020068398C06AE8615C
:1043C0002C62D7B9AE710020E8712146839800F0C5
:1043D00078FD2861E07F0106A07F41EA0041607F0F
:1043E00041EA0020217F0843E8600020A860A8611E
:1043F000839828602868C088A880384648E72DE957
:10440000FF4F85B0044615469A46DDF818B00020E7
:10441000CAF80000204601F03EF80490049818B154
:10442000049809B0BDE8F08FE07908B1E079F8E7C9
:10443000A07900F0010008B90720F2E7D4E90210E2
:10444000401A02900298854200D9029DBAE0216884
:104450004989A068B0FBF1F201FB1200002877D176
:1044600021684989A068B0FBF1F021688978491E6C
:10447000084000F0FF09B9F1000F17D1A06810B98A
:104480002069039004E06169206800F051FC03900A
:104490000398022802D20220E071C2E70398401C70
:1044A00010B90120E071BCE7039860616169206880
:1044B000FFF752F9064616B90220E071B1E74E4403
:1044C00020684089B5FBF0F8B8F1000F2DD009EB5A
:1044D000080021688978884203D920688078A0EB99
:1044E000090821684878434632465946FFF7DCFD03
:1044F00010B10120E07194E7A07900F0400078B19C
:10450000A069801B40450BD2A169891B23685B8988
:1045100001FB03B021684A8904F1240100F0EBFD9E
:104520002068408900FB08F742E0A069B04220D033
:10453000A07900F0400080B121684878012304F19F
:104540002401A269FFF710FE18B10120E07168E7AD
:1045500010E0A07920F04000A07121684878012384
:10456000324604F12401FFF79FFD10B10120E071F4
:1045700057E7A66121684989A068B0FBF1F201FB09
:104580001200216849890F1AAF4200D92F462168CD
:104590004989A068B0FBF1F201FB120104F124008B
:1045A00008443A4601460190584600F0A4FD00BF79
:1045B000BB44A0683844A060DAF800003844CAF868
:1045C0000000ED1B002D7FF442AF002029E72DE90C
:1045D000F0410446204600F05EFF0746002F4CD114
:1045E000A07900F02000002847D0A07900F040001A
:1045F00078B121684878012304F12401A269FFF70A
:10460000B3FD10B10120BDE8F081A07920F0400099
:10461000A071E169206800F085FD0746002F2CD1CC
:10462000256AE87A40F02000E872207B2877A0898C
:10463000010A6977E068010CA977E068010EE97763
:104640002846216900F082FE00F012FC0646AE7595
:10465000310AE975310C2976310E69760020A8748B
:104660000021E974A07920F02000A07101202168C8
:104670000871206800F082FE07463846C3E7000054
:104680002DE9F04102460F46802A01DA10462FE05C
:104690001FB1184B45F2205602E0174B45F2205649
:1046A0000025102416E0A6EB050C0CEBDC7805EBDE
:1046B00068014FEA410C33F81CC0944500D10BE06F
:1046C0004FEA410C33F81CC0944501DA0D4600E076
:1046D0000E46641E002CE6D100BF34B14FF0010C31
:1046E0000CEB410C33F81CC001E04FF0000C6046AD
:1046F000BDE8F08186A901080255000830B5802880
:1047000007DA612823DB7A2821DCA0F12005A8B292
:104710001DE00C2200234FF4F77400BFE51A03EBF1
:1047200055010B4D35F81150854200D10AE0084D76
:1047300035F81150854201DA0B4600E00C46551E53
:104740002A1EEBD100BF12B1024D35F8110030BD69
:104750000AFE0208E60103082DE9F74F8AB000219E
:104760000A9801600B9800F087FB099009980028CF
:1047700003DA0B200DB0BDE8F08FE949099851F834
:1047800020400CB90C20F5E70A980460207878B135
:104790006078FFF7CDFC814609F0010040B90C9824
:1047A00020B109F0040008B10A20E3E70020E1E7A6
:1047B00000202070099860706078FFF708FC81463F
:1047C00009F0010008B10320D4E70C9820B109F0EA
:1047D000040008B10A20CDE7607804F10A02022142
:1047E000FFF718FC38B96089B0F5007F03DB6089FA
:1047F000B0F5805F01DD0120BCE700273946204687
:10480000FEF758FF0546012D01D09DBB32E0002682
:104810001AE004F5F77000EB061898F8040070B180
:1048200098F80B00010698F80A0041EA004198F850
:10483000090041EA002098F80810084300E0002031
:1048400002A941F82600761C042EE2D3002606B108
:10485000761E00BF02A850F8267027B139462046C0
:10486000FEF728FF00E0022005461DB1701C064639
:104870000428EFD3032D01D101207BE70DB10D20DA
:1048800078E73B20015D94F83C0041EA0020618913
:10489000884201D00D206DE74620015D94F8470065
:1048A00041EA002ABAF1000F0ED194F85700010630
:1048B00094F8560041EA004194F8550041EA00207E
:1048C00094F8541040EA010AC4F818A04020005D92
:1048D000E070E078012804D0E078022801D00D20B3
:1048E00048E7E0780AFB00FA3D20005DA070A07860
:1048F00018B1A078411E084008B10D203AE74120C8
:10490000015D94F8420041EA002020816089C117CE
:1049100000EBD1614911228992FBF1F301FB1321D4
:1049200009B10D2026E74320015D94F8440041EAD7
:1049300000200890089870B994F85300010694F884
:10494000520041EA004194F8510041EA002094F8F5
:104950005010084308903E20015D94F83F0041EA62
:1049600000200190019808B90D2003E76089C11764
:1049700000EBD1614911228992FBF1F20199514476
:1049800011440791DDE90710884201D20D20F1E6BC
:10499000DDE90710401AA178B0FBF1FBBBF1000F75
:1049A00001D10D20E6E6012540F6F670834500D3DF
:1049B00002254FF6F670834500D303250BF1020064
:1049C0006061E76101983844206207983844A0622A
:1049D000032D16D1208908B10D20CBE694F85F0095
:1049E000010694F85E0041EA004194F85D0041EA56
:1049F000002094F85C1008436062606980000690B3
:104A000014E0208908B90D20B4E6206A50446062A1
:104A1000022D02D16069400007E0207D00F0010016
:104A2000616901EB410100EB510006906089401E75
:104A3000069908446189B0FBF1F0A169884201D967
:104A40000D2097E64FF0FF302061E060802060711C
:104A5000032D5AD194F8601094F8610041EA0020C7
:104A6000012852D1791C204600F05CFBE8BB0020F5
:104A7000607194F82E1294F82F0241EA00204AF651
:104A80005521884241D13320005D01063220005D6E
:104A900041EA00413120005D41EA002094F83010E5
:104AA00008432049884230D194F81702010694F84F
:104AB000160241EA004194F8150241EA002094F8F8
:104AC00014120843184988421FD194F81B020106AA
:104AD00094F81A0241EA004194F8190241EA0020D0
:104AE00094F818120843206100E00EE094F81F02C9
:104AF000010694F81E0241EA004194F81D0241EAC1
:104B0000002094F81C120843E060257007480088D4
:104B1000401C80B205490880E08000202AE60000A1
:104B20003800002052526141727241614000002001
:104B3000F0B504461D464D730F27CF7200270F7343
:104B40008F76BC4681F81BC0571E07EB870C0CEB19
:104B5000C706002738463B4600BF4FF6FF77B842EE
:104B600003D03746761C34F81700DFF840C01CF835
:104B700003C001F80C000712DFF830C01CF803C0B6
:104B80008C448CF8017008B94FF6FF705F1C3B46EF
:104B90000D2FE2D34FF6FF77B84202D034F81670EB
:104BA0000FB942F040020A70F0BD0000C85400087E
:104BB0002DE9F3410446019800782F2803D001988D
:104BC00000785C2802D10198401C01900020A06070
:104BD00001980078202807D200212046FFF793F99A
:104BE00005460020606128E000BF01A92046FEF7CD
:104BF0007DFE054605B11FE02046FEF7DDFF0546B8
:104C0000A069C67A3DB1042D04D100BF06F00400AE
:104C100000B9052510E006F0040000B10CE067695A
:104C2000F87A00F0100008B9052505E0394620683B
:104C300000F047F9A060D8E700BF2846BDE8FC8136
:104C400070B504460D46E1B20548FEF763FC00BFAF
:104C500080210348FEF7E6FB0028F9D0204670BD0E
:104C6000001001402DE9FF4F83B0074691461E46D4
:104C70000B223846049900F03EFA052E19D9B046A9
:104C800012E039F802BB00250CE0584668F35F00DB
:104C900080464FEA6B0B08F4803010B1234888EA55
:104CA00000086D1C102DF0D3B9F800000028E8D1E1
:104CB0004646072500BF06F00F0000F1300ABAF1A2
:104CC000390F03DD0AF1070000F0FF0A28466D1EC8
:104CD00001A901F800A03609002EECD17E2048552C
:104CE00000240BE0385D812807DB385DFE2804DCFA
:104CF000681EA04200D106E0641C641CAC4202D2D3
:104D0000385D2028EED100BF00BF082D04D2284610
:104D10006D1C01A9095C00E020212046641C395467
:104D2000082CF2D307B0BDE8F08F0000211001007D
:104D30002DE9F05F04460D46022D02D36069A842BA
:104D400002D84FF001098FE04FF0FF392078012899
:104D500004D002283CD003287ED157E02F4607EB31
:104D600057076089B7FBF0F0216A00EB010A514652
:104D7000204600F0D7F900B175E038467F1C618904
:104D8000B0FBF1F201FB120104F1300010F80180D8
:104D90006089B7FBF0F0216A00EB010A514620461A
:104DA00000F0C0F900B15EE06089B7FBF0F100FBF4
:104DB000117104F13000405C48EA002805F0010060
:104DC00010B14FEA181001E0C8F30B0081464AE029
:104DD000B4F80AA00AEBDA704010B5FBF0F0216AD3
:104DE00000EB010B5946204600F09CF900B13AE077
:104DF00068006189B0FBF1F201FB120104F130009F
:104E00000E183078717840EA01292CE0B4F80AA035
:104E10004FEAEA700AEB90708010B5FBF0F0216A5F
:104E200000EB010B5946204600F07CF900B11AE076
:104E3000A8006189B0FBF1F201FB120104F130001E
:104E40000E18F0780006B17840EA0140717840EA27
:104E500001203178084300E002E020F0704902E0D0
:104E60004FF0010900BF00BF4846BDE8F09F0000B9
:104E7000004870470000214670B502464FF0FF30F1
:104E80001568E5B1116800E0491C0D78202D02D3AA
:104E90000D783A2DF8D10D783A2D0FD1146814F809
:104EA000015BA5F130030A2B07D28C4205D1022BFE
:104EB00003D218464D1C2946156070BD002000BF66
:104EC000FBE710B502468C7ECB7E44EA03201378C4
:104ED000032B05D10C7D4B7D44EA032340EA0340BC
:104EE00010BD0000FBF7F8F9FCF770FFFCF75CF968
:104EF000FCF7C0F8FBF7D0FC2CA0FEF711FB012259
:104F000035A13648FFF78EF9354908700846007814
:104F100048B10846017833A0FEF702FB3AA0FEF73D
:104F2000FFFA00BFFEE741A0FEF7FAFA49A0FEF73C
:104F3000F7FA012250A15748FFF7A2F92849087053
:104F400008460078D0B94FF480605349088040008B
:104F5000891C08804000891E088050A0FEF7E0FAF6
:104F600002E05348FBF7D8F9524B4FF41642504930
:104F70004848FFF744FA0028F3D00CE04FF4806073
:104F80004549891C08804000891E0880400008802F
:104F900049A0FEF7C5FA3F48FFF734F901220EA1F8
:104FA0000020FFF73FF900BFFEE700002A2A2A2A67
:104FB0002A2A20D5E2CAC7D2BBB8F620534420CE55
:104FC000C4BCFECFB5CDB3CAB5D1E9202A2A2A2A5E
:104FD0002A2A0D0A00000000303A00004800002094
:104FE00010000020A3A1A3A1CDE2B2BF5344B9D2C7
:104FF000D4D8CEC4BCFECFB5CDB3CAA7B0DCA1A374
:10500000282564290D0A0000A3A1A3A1BFC9C4DCFF
:10501000D4ADD2F2A3BA5344B3F5CABCBBAFB2BB52
:10502000B3C9B9A6A1A30D0A00000000A1B7CEC460
:10503000BCFECFB5CDB3B9D2D4D8B3C9B9A6A3AC51
:10504000BFC9D2D4BDF8D0D0B6C1CEC4BCFE0D0A03
:10505000000000002A2A2A2A2A2A20BCB4BDABBD9F
:10506000F8D0D0CEC4BCFEB6C1C8A12E2E2E202AA8
:105070002A2A2A2A2A0D0A00303A62616461707075
:105080006C653634305E3438305F32306670732E83
:1050900062696E0078100020181C0240A1B7B4F2BB
:1050A000BFAACEC4BCFEB3C9B9A6A1A30D0A000015
:1050B0009C20002014000020A3A1A3A1B4F2BFAA49
:1050C000CEC4BCFECAA7B0DCA1A30D0A000000003C
:1050D000F0B503461C460D46002000BF161EA2F187
:1050E000010207D014F8017B15F801CBA7EB0C06E1
:1050F000301EF3D0F0BD70B503460C4603E014F843
:10510000015B03F8015B151EA2F10102F7D170BD2E
:1051100030B5034601E003F8011B141EA2F10102A1
:10512000F9D130BD70B504460D460026E06AA842AC
:1051300010D0204600F086F906465EB9607801235B
:105140002A4604F13001FEF7AFFF10B14FF0FF35F2
:105150000126E562304670BD2DE9F05F04460E463B
:105160001746022E02D36069B04202D84FF00208FF
:10517000B3E02078012804D0022852D0032872D14D
:1051800072E0B14609EB59096089B9FBF0F0216A78
:1051900000EB010A51462046FFF7C4FF8046B8F1F4
:1051A000000F00D098E0484609F101096189B0FB81
:1051B000F1F201FB120104F130000D1806F00100BC
:1051C00020B1F9B2287861F31F1000E0384628704A
:1051D000012020716089B9FBF0F0216A00EB010A1F
:1051E00051462046FFF79EFF8046B8F1000F00D0E1
:1051F00072E06089B9FBF0F100FB119104F130001D
:105200000D1806F0010010B1C7F3071005E028786B
:1052100000F0F000C7F3032108432870012020713B
:105220005AE0B4F80AA00AEBDA704010B6FBF0F0CE
:10523000216A00EB010B59462046FFF773FF8046B9
:10524000B8F1000F00D047E070006189B0FBF1F2C7
:1052500001FB120104F130000D182F70380A68703C
:105260000120207138E034E0B4F80AA04FEAEA7077
:105270000AEB90708010B6FBF0F0216A00EB010B96
:1052800059462046FFF74EFF8046B8F1000F00D088
:1052900022E0B0006189B0FBF1F201FB120104F1E0
:1052A00030000D18E8780006A97840EA01406978D6
:1052B00040EA01202978084300F0704007432F702E
:1052C000380A6870380CA870380EE8700120207118
:1052D00002E04FF0020800BF00BF4046BDE8F09F6B
:1052E0002DE9F04104460E46022E02D36069B04219
:1052F00001D8022727E0002721E031462046FFF7AA
:1053000017FD054605B91DE0012D01D1022719E061
:10531000681C08B9012715E0002231462046FFF736
:105320001BFF074607B10DE02069401C30B1206922
:10533000401C2061607940F0010060712E46606978
:10534000B042DAD800BF3846BDE8F08181760B0A5A
:10535000C3760A0C02750B0E4375704730B50146D3
:1053600000200B2200BF431003EBC01411F8015BB7
:105370006319D8B2531E1A1EF5D130BD70B504465C
:10538000204600F05FF80546002D59D1207803280B
:105390004FD1607901284CD16289002104F130009D
:1053A000FFF7B6FE552184F82E12AA2184F82F1299
:1053B000522084F8300052213120015561213220E1
:1053C0000155412133200155722184F8141284F8CB
:1053D0001512412184F81612612184F81712217CDC
:1053E00084F81812208A010A84F819122069010C25
:1053F00084F81A122069010E84F81B12217B84F8AC
:105400001C12A089010A84F81D12E068010C84F8BE
:105410001E12E068010E84F81F12E069401CE06271
:105420006078012304F13001E26AFEF79DFE00205E
:105430006071607800221146FEF7ECFD00B1012595
:10544000284670BD2DE9F041044600272079F8B1C7
:10545000E56A607801232A4604F13001FEF784FEF4
:1054600008B1012714E000202071206A281AA169E0
:1054700088420DD2E67809E0A069054460780123EE
:105480002A4604F13001FEF76FFE761E022EF3D29B
:105490003846BDE8F08170B505462C4684B12068D9
:1054A00070B12068007858B12068C088A18888420F
:1054B00006D121684878FEF73BFE00F0010008B1F4
:1054C000092070BD0020FCE701030507090E10123A
:1054D0001416181C1E000004000200018000400089
:1054E00020001000080004000200000000800040BE
:1054F00000200010000800400020001000080004F8
:105500000002A400E8A1A700ECA1A800A7A1B00098
:10551000E3A1B100C0A1B700A4A1D700C1A1E000E0
:10552000A4A8E100A2A8E800A8A8E900A6A8EA00AB
:10553000BAA8EC00ACA8ED00AAA8F200B0A8F3004D
:10554000AEA8F700C2A1F900B4A8FA00B2A8FC0006
:10555000B9A80101A1A81301A5A81B01A7A82B01A7
:10556000A9A84401BDA84801BEA84D01ADA86B0182
:10557000B1A8CE01A3A8D001ABA8D201AFA8D40195
:10558000B3A8D601B5A8D801B6A8DA01B7A8DC013E
:10559000B8A85102BBA86102C0A8C702A6A1C9024F
:1055A000A5A1CA0240A8CB0241A8D90242A89103F2
:1055B000A1A69203A2A69303A3A69403A4A695036F
:1055C000A5A69603A6A69703A7A69803A8A699033F
:1055D000A9A69A03AAA69B03ABA69C03ACA69D030F
:1055E000ADA69E03AEA69F03AFA6A003B0A6A103DF
:1055F000B1A6A303B2A6A403B3A6A503B4A6A603AB
:10560000B5A6A703B6A6A803B7A6A903B8A6B10373
:10561000C1A6B203C2A6B303C3A6B403C4A6B5030E
:10562000C5A6B603C6A6B703C7A6B803C8A6B903DE
:10563000C9A6BA03CAA6BB03CBA6BC03CCA6BD03AE
:10564000CDA6BE03CEA6BF03CFA6C003D0A6C1037E
:10565000D1A6C303D2A6C403D3A6C503D4A6C6034A
:10566000D5A6C703D6A6C803D7A6C903D8A60104E2
:10567000A7A71004A1A71104A2A71204A3A71304AB
:10568000A4A71404A5A71504A6A71604A8A7170481
:10569000A9A71804AAA71904ABA71A04ACA71B044E
:1056A000ADA71C04AEA71D04AFA71E04B0A71F041E
:1056B000B1A72004B2A72104B3A72204B4A72304EE
:1056C000B5A72404B6A72504B7A72604B8A72704BE
:1056D000B9A72804BAA72904BBA72A04BCA72B048E
:1056E000BDA72C04BEA72D04BFA72E04C0A72F045E
:1056F000C1A73004D1A73104D2A73204D3A7330401
:10570000D4A73404D5A73504D6A73604D8A73704C0
:10571000D9A73804DAA73904DBA73A04DCA73B048D
:10572000DDA73C04DEA73D04DFA73E04E0A73F045D
:10573000E1A74004E2A74104E3A74204E4A743042D
:10574000E5A74404E6A74504E7A74604E8A74704FD
:10575000E9A74804EAA74904EBA74A04ECA74B04CD
:10576000EDA74C04EEA74D04EFA74E04F0A74F049D
:10577000F1A75104D7A710205CA9132043A8142037
:10578000AAA1152044A81620ACA11820AEA119206A
:10579000AFA11C20B0A11D20B1A1252045A8262025
:1057A000ADA13020EBA13220E4A13320E5A13520CA
:1057B00046A83B20F9A1AC2080000321E6A10521E9
:1057C00047A8092148A81621EDA1212159A9602146
:1057D000F1A26121F2A26221F3A26321F4A2642169
:1057E000F5A26521F6A26621F7A26721F8A2682139
:1057F000F9A26921FAA26A21FBA26B21FCA2702105
:10580000A1A27121A2A27221A3A27321A4A2742138
:10581000A5A27521A6A27621A7A27721A8A2782108
:10582000A9A27921AAA29021FBA19121FCA19221F8
:10583000FAA19321FDA1962149A897214AA8982170
:105840004BA899214CA80822CAA10F22C7A1112256
:10585000C6A115224DA81A22CCA11D22D8A11E2214
:10586000DEA11F224EA82022CFA123224FA825224D
:10587000CEA12722C4A12822C5A12922C9A12A225A
:10588000C8A12B22D2A12E22D3A13422E0A13522FD
:10589000DFA13622C3A13722CBA13D22D7A14822C6
:1058A000D6A14C22D5A1522250A86022D9A16122B2
:1058B000D4A16422DCA16522DDA1662251A8672261
:1058C00052A86E22DAA16F22DBA1952292A899221A
:1058D000D1A1A522CDA1BF2253A81223D0A160241B
:1058E000D9A26124DAA26224DBA26324DCA26424AC
:1058F000DDA26524DEA26624DFA26724E0A268247C
:10590000E1A26924E2A27424C5A27524C6A2762469
:10591000C7A27724C8A27824C9A27924CAA27A246B
:10592000CBA27B24CCA27C24CDA27D24CEA27E243B
:10593000CFA27F24D0A28024D1A28124D2A282240B
:10594000D3A28324D4A28424D5A28524D6A28624DB
:10595000D7A28724D8A28824B1A28924B2A28A24FB
:10596000B3A28B24B4A28C24B5A28D24B6A28E241B
:10597000B7A28F24B8A29024B9A29124BAA29224EB
:10598000BBA29324BCA29424BDA29524BEA29624BB
:10599000BFA29724C0A29824C1A29924C2A29A248B
:1059A000C3A29B24C4A20025A4A90125A5A9022560
:1059B000A6A90325A7A90425A8A90525A9A90625FF
:1059C000AAA90725ABA90825ACA90925ADA90A25CF
:1059D000AEA90B25AFA90C25B0A90D25B1A90E259F
:1059E000B2A90F25B3A91025B4A91125B5A912256F
:1059F000B6A91325B7A91425B8A91525B9A916253F
:105A0000BAA91725BBA91825BCA91925BDA91A250E
:105A1000BEA91B25BFA91C25C0A91D25C1A91E25DE
:105A2000C2A91F25C3A92025C4A92125C5A92225AE
:105A3000C6A92325C7A92425C8A92525C9A926257E
:105A4000CAA92725CBA92825CCA92925CDA92A254E
:105A5000CEA92B25CFA92C25D0A92D25D1A92E251E
:105A6000D2A92F25D3A93025D4A93125D5A93225EE
:105A7000D6A93325D7A93425D8A93525D9A93625BE
:105A8000DAA93725DBA93825DCA93925DDA93A258E
:105A9000DEA93B25DFA93C25E0A93D25E1A93E255E
:105AA000E2A93F25E3A94025E4A94125E5A942252E
:105AB000E6A94325E7A94425E8A94525E9A94625FE
:105AC000EAA94725EBA94825ECA94925EDA94A25CE
:105AD000EEA94B25EFA9502554A8512555A85225CC
